{
  "contractName": "Ethazon",
  "abi": [
    {
      "inputs": [],
      "payable": false,
      "stateMutability": "nonpayable",
      "type": "constructor"
    },
    {
      "anonymous": false,
      "inputs": [
        {
          "indexed": false,
          "internalType": "bool",
          "name": "isValidEthazonOrder",
          "type": "bool"
        },
        {
          "indexed": false,
          "internalType": "string",
          "name": "customerName",
          "type": "string"
        },
        {
          "indexed": false,
          "internalType": "string",
          "name": "shipmentAddress",
          "type": "string"
        },
        {
          "indexed": false,
          "internalType": "bool",
          "name": "hasConfirmed",
          "type": "bool"
        }
      ],
      "name": "orderCancelled",
      "type": "event"
    },
    {
      "anonymous": false,
      "inputs": [
        {
          "indexed": false,
          "internalType": "bool",
          "name": "isValidEthazonOrder",
          "type": "bool"
        },
        {
          "indexed": false,
          "internalType": "string",
          "name": "customerName",
          "type": "string"
        },
        {
          "indexed": false,
          "internalType": "string",
          "name": "shipmentAddress",
          "type": "string"
        },
        {
          "indexed": false,
          "internalType": "bool",
          "name": "hasConfirmed",
          "type": "bool"
        }
      ],
      "name": "orderConfirmed",
      "type": "event"
    },
    {
      "anonymous": false,
      "inputs": [
        {
          "indexed": false,
          "internalType": "bool",
          "name": "isValidEthazonOrder",
          "type": "bool"
        },
        {
          "indexed": false,
          "internalType": "string",
          "name": "customerName",
          "type": "string"
        },
        {
          "indexed": false,
          "internalType": "string",
          "name": "shipmentAddress",
          "type": "string"
        },
        {
          "indexed": false,
          "internalType": "bool",
          "name": "hasConfirmed",
          "type": "bool"
        }
      ],
      "name": "orderMade",
      "type": "event"
    },
    {
      "anonymous": false,
      "inputs": [
        {
          "indexed": false,
          "internalType": "address payable",
          "name": "to",
          "type": "address"
        },
        {
          "indexed": false,
          "internalType": "uint256",
          "name": "value",
          "type": "uint256"
        }
      ],
      "name": "transfered",
      "type": "event"
    },
    {
      "constant": true,
      "inputs": [
        {
          "internalType": "address",
          "name": "",
          "type": "address"
        }
      ],
      "name": "order",
      "outputs": [
        {
          "internalType": "bool",
          "name": "isValidEthazonOrder",
          "type": "bool"
        },
        {
          "internalType": "string",
          "name": "customerName",
          "type": "string"
        },
        {
          "internalType": "string",
          "name": "shipmentAddress",
          "type": "string"
        },
        {
          "internalType": "bool",
          "name": "hasConfirmed",
          "type": "bool"
        }
      ],
      "payable": false,
      "stateMutability": "view",
      "type": "function"
    },
    {
      "constant": true,
      "inputs": [],
      "name": "orderPrice",
      "outputs": [
        {
          "internalType": "uint256",
          "name": "",
          "type": "uint256"
        }
      ],
      "payable": false,
      "stateMutability": "view",
      "type": "function"
    },
    {
      "constant": true,
      "inputs": [],
      "name": "shopName",
      "outputs": [
        {
          "internalType": "string",
          "name": "",
          "type": "string"
        }
      ],
      "payable": false,
      "stateMutability": "view",
      "type": "function"
    },
    {
      "constant": false,
      "inputs": [
        {
          "internalType": "string",
          "name": "_customerName",
          "type": "string"
        },
        {
          "internalType": "string",
          "name": "_shipmentAddress",
          "type": "string"
        }
      ],
      "name": "makeOrder",
      "outputs": [],
      "payable": true,
      "stateMutability": "payable",
      "type": "function"
    },
    {
      "constant": false,
      "inputs": [
        {
          "internalType": "string",
          "name": "_customerName",
          "type": "string"
        },
        {
          "internalType": "string",
          "name": "_shipmentAddress",
          "type": "string"
        }
      ],
      "name": "confirmOrder",
      "outputs": [],
      "payable": false,
      "stateMutability": "nonpayable",
      "type": "function"
    },
    {
      "constant": false,
      "inputs": [
        {
          "internalType": "string",
          "name": "_customerName",
          "type": "string"
        },
        {
          "internalType": "string",
          "name": "_shipmentAddress",
          "type": "string"
        }
      ],
      "name": "cancelOrder",
      "outputs": [],
      "payable": true,
      "stateMutability": "payable",
      "type": "function"
    },
    {
      "constant": false,
      "inputs": [
        {
          "internalType": "address payable",
          "name": "_to",
          "type": "address"
        }
      ],
      "name": "transferMoney",
      "outputs": [],
      "payable": true,
      "stateMutability": "payable",
      "type": "function"
    }
  ],
  "bytecode": "0x60806040523480156200001157600080fd5b506040518060400160405280601381526020017f7368656e79756520457468617a6f6e2e636f6d00000000000000000000000000815250600090805190602001906200005f929190620000b6565b5033600160006101000a81548173ffffffffffffffffffffffffffffffffffffffff021916908373ffffffffffffffffffffffffffffffffffffffff160217905550671bc16d674ec8000060028190555062000165565b828054600181600116156101000203166002900490600052602060002090601f016020900481019282601f10620000f957805160ff19168380011785556200012a565b828001600101855582156200012a579182015b82811115620001295782518255916020019190600101906200010c565b5b5090506200013991906200013d565b5090565b6200016291905b808211156200015e57600081600090555060010162000144565b5090565b90565b6119f180620001756000396000f3fe6080604052600436106100705760003560e01c806386ce98351161004e57806386ce983514610351578063b7f84d9714610395578063d1118f5a146104e1578063dc4c9e951461057157610070565b806304b5bf4f146100755780631b24f76d146101c75780631ba4ab39146101f2575b600080fd5b6101c56004803603604081101561008b57600080fd5b81019080803590602001906401000000008111156100a857600080fd5b8201836020820111156100ba57600080fd5b803590602001918460018302840111640100000000831117156100dc57600080fd5b91908080601f016020809104026020016040519081016040528093929190818152602001838380828437600081840152601f19601f8201169050808301925050505050505091929192908035906020019064010000000081111561013f57600080fd5b82018360208201111561015157600080fd5b8035906020019184600183028401116401000000008311171561017357600080fd5b91908080601f016020809104026020016040519081016040528093929190818152602001838380828437600081840152601f19601f8201169050808301925050505050505091929192905050506106c3565b005b3480156101d357600080fd5b506101dc610aeb565b6040518082815260200191505060405180910390f35b3480156101fe57600080fd5b5061034f6004803603604081101561021557600080fd5b810190808035906020019064010000000081111561023257600080fd5b82018360208201111561024457600080fd5b8035906020019184600183028401116401000000008311171561026657600080fd5b91908080601f016020809104026020016040519081016040528093929190818152602001838380828437600081840152601f19601f820116905080830192505050505050509192919290803590602001906401000000008111156102c957600080fd5b8201836020820111156102db57600080fd5b803590602001918460018302840111640100000000831117156102fd57600080fd5b91908080601f016020809104026020016040519081016040528093929190818152602001838380828437600081840152601f19601f820116905080830192505050505050509192919290505050610af1565b005b6103936004803603602081101561036757600080fd5b81019080803573ffffffffffffffffffffffffffffffffffffffff169060200190929190505050610f10565b005b3480156103a157600080fd5b506103e4600480360360208110156103b857600080fd5b81019080803573ffffffffffffffffffffffffffffffffffffffff169060200190929190505050611041565b6040518085151515158152602001806020018060200184151515158152602001838103835286818151815260200191508051906020019080838360005b8381101561043c578082015181840152602081019050610421565b50505050905090810190601f1680156104695780820380516001836020036101000a031916815260200191505b50838103825285818151815260200191508051906020019080838360005b838110156104a2578082015181840152602081019050610487565b50505050905090810190601f1680156104cf5780820380516001836020036101000a031916815260200191505b50965050505050505060405180910390f35b3480156104ed57600080fd5b506104f66111bb565b6040518080602001828103825283818151815260200191508051906020019080838360005b8381101561053657808201518184015260208101905061051b565b50505050905090810190601f1680156105635780820380516001836020036101000a031916815260200191505b509250505060405180910390f35b6106c16004803603604081101561058757600080fd5b81019080803590602001906401000000008111156105a457600080fd5b8201836020820111156105b657600080fd5b803590602001918460018302840111640100000000831117156105d857600080fd5b91908080601f016020809104026020016040519081016040528093929190818152602001838380828437600081840152601f19601f8201169050808301925050505050505091929192908035906020019064010000000081111561063b57600080fd5b82018360208201111561064d57600080fd5b8035906020019184600183028401116401000000008311171561066f57600080fd5b91908080601f016020809104026020016040519081016040528093929190818152602001838380828437600081840152601f19601f820116905080830192505050505050509192919290505050611259565b005b6106cb6117f1565b600360003373ffffffffffffffffffffffffffffffffffffffff1673ffffffffffffffffffffffffffffffffffffffff1681526020019081526020016000206040518060800160405290816000820160009054906101000a900460ff16151515158152602001600182018054600181600116156101000203166002900480601f0160208091040260200160405190810160405280929190818152602001828054600181600116156101000203166002900480156107c95780601f1061079e576101008083540402835291602001916107c9565b820191906000526020600020905b8154815290600101906020018083116107ac57829003601f168201915b50505050508152602001600282018054600181600116156101000203166002900480601f01602080910402602001604051908101604052809291908181526020018280546001816001161561010002031660029004801561086b5780601f106108405761010080835404028352916020019161086b565b820191906000526020600020905b81548152906001019060200180831161084e57829003601f168201915b505050505081526020016003820160009054906101000a900460ff16151515158152505090508060600151156108ec576040517f08c379a00000000000000000000000000000000000000000000000000000000081526004018080602001828103825260308152602001806118c36030913960400191505060405180910390fd5b600081600001901515908115158152505080600360003373ffffffffffffffffffffffffffffffffffffffff1673ffffffffffffffffffffffffffffffffffffffff16815260200190815260200160002060008201518160000160006101000a81548160ff021916908315150217905550602082015181600101908051906020019061097992919061181d565b50604082015181600201908051906020019061099692919061181d565b5060608201518160030160006101000a81548160ff0219169083151502179055509050506109c333610f10565b7fe2e0ec772eab49ec36c9dc8e65b5c3703966f940249919b2f6dc2d62e53910486000848460006040518085151515158152602001806020018060200184151515158152602001838103835286818151815260200191508051906020019080838360005b83811015610a42578082015181840152602081019050610a27565b50505050905090810190601f168015610a6f5780820380516001836020036101000a031916815260200191505b50838103825285818151815260200191508051906020019080838360005b83811015610aa8578082015181840152602081019050610a8d565b50505050905090810190601f168015610ad55780820380516001836020036101000a031916815260200191505b50965050505050505060405180910390a1505050565b60025481565b610af96117f1565b600360003373ffffffffffffffffffffffffffffffffffffffff1673ffffffffffffffffffffffffffffffffffffffff1681526020019081526020016000206040518060800160405290816000820160009054906101000a900460ff16151515158152602001600182018054600181600116156101000203166002900480601f016020809104026020016040519081016040528092919081815260200182805460018160011615610100020316600290048015610bf75780601f10610bcc57610100808354040283529160200191610bf7565b820191906000526020600020905b815481529060010190602001808311610bda57829003601f168201915b50505050508152602001600282018054600181600116156101000203166002900480601f016020809104026020016040519081016040528092919081815260200182805460018160011615610100020316600290048015610c995780601f10610c6e57610100808354040283529160200191610c99565b820191906000526020600020905b815481529060010190602001808311610c7c57829003601f168201915b505050505081526020016003820160009054906101000a900460ff1615151515815250509050806000015115610d1a576040517f08c379a000000000000000000000000000000000000000000000000000000000815260040180806020018281038252602a815260200180611993602a913960400191505060405180910390fd5b600181606001901515908115158152505080600360003373ffffffffffffffffffffffffffffffffffffffff1673ffffffffffffffffffffffffffffffffffffffff16815260200190815260200160002060008201518160000160006101000a81548160ff0219169083151502179055506020820151816001019080519060200190610da792919061181d565b506040820151816002019080519060200190610dc492919061181d565b5060608201518160030160006101000a81548160ff0219169083151502179055509050507fe2e0ec772eab49ec36c9dc8e65b5c3703966f940249919b2f6dc2d62e53910486001848460016040518085151515158152602001806020018060200184151515158152602001838103835286818151815260200191508051906020019080838360005b83811015610e67578082015181840152602081019050610e4c565b50505050905090810190601f168015610e945780820380516001836020036101000a031916815260200191505b50838103825285818151815260200191508051906020019080838360005b83811015610ecd578082015181840152602081019050610eb2565b50505050905090810190601f168015610efa5780820380516001836020036101000a031916815260200191505b50965050505050505060405180910390a1505050565b600254341015610f88576040517f08c379a00000000000000000000000000000000000000000000000000000000081526004018080602001828103825260198152602001807f5061796d656e742073686f756c6420626520656e6f756768210000000000000081525060200191505060405180910390fd5b8073ffffffffffffffffffffffffffffffffffffffff166108fc6002549081150290604051600060405180830381858888f19350505050158015610fd0573d6000803e3d6000fd5b507f143d69bf67b6a4940e385436570698c0eee392469e51320d6db8637ca47ed1cf81600254604051808373ffffffffffffffffffffffffffffffffffffffff1673ffffffffffffffffffffffffffffffffffffffff1681526020018281526020019250505060405180910390a150565b60036020528060005260406000206000915090508060000160009054906101000a900460ff1690806001018054600181600116156101000203166002900480601f0160208091040260200160405190810160405280929190818152602001828054600181600116156101000203166002900480156111005780601f106110d557610100808354040283529160200191611100565b820191906000526020600020905b8154815290600101906020018083116110e357829003601f168201915b505050505090806002018054600181600116156101000203166002900480601f01602080910402602001604051908101604052809291908181526020018280546001816001161561010002031660029004801561119e5780601f106111735761010080835404028352916020019161119e565b820191906000526020600020905b81548152906001019060200180831161118157829003601f168201915b5050505050908060030160009054906101000a900460ff16905084565b60008054600181600116156101000203166002900480601f0160208091040260200160405190810160405280929190818152602001828054600181600116156101000203166002900480156112515780601f1061122657610100808354040283529160200191611251565b820191906000526020600020905b81548152906001019060200180831161123457829003601f168201915b505050505081565b60008251116112b3576040517f08c379a000000000000000000000000000000000000000000000000000000000815260040180806020018281038252602381526020018061194c6023913960400191505060405180910390fd5b600081511161130d576040517f08c379a000000000000000000000000000000000000000000000000000000000815260040180806020018281038252602481526020018061196f6024913960400191505060405180910390fd5b600254341015611385576040517f08c379a00000000000000000000000000000000000000000000000000000000081526004018080602001828103825260198152602001807f5061796d656e742073686f756c6420626520656e6f756768210000000000000081525060200191505060405180910390fd5b61138d6117f1565b600360003373ffffffffffffffffffffffffffffffffffffffff1673ffffffffffffffffffffffffffffffffffffffff1681526020019081526020016000206040518060800160405290816000820160009054906101000a900460ff16151515158152602001600182018054600181600116156101000203166002900480601f01602080910402602001604051908101604052809291908181526020018280546001816001161561010002031660029004801561148b5780601f106114605761010080835404028352916020019161148b565b820191906000526020600020905b81548152906001019060200180831161146e57829003601f168201915b50505050508152602001600282018054600181600116156101000203166002900480601f01602080910402602001604051908101604052809291908181526020018280546001816001161561010002031660029004801561152d5780601f106115025761010080835404028352916020019161152d565b820191906000526020600020905b81548152906001019060200180831161151057829003601f168201915b505050505081526020016003820160009054906101000a900460ff16151515158152505090508060000151158015611566575080606001515b6115bb576040517f08c379a00000000000000000000000000000000000000000000000000000000081526004018080602001828103825260598152602001806118f36059913960600191505060405180910390fd5b604051806080016040528060011515815260200184815260200183815260200160001515815250600360003373ffffffffffffffffffffffffffffffffffffffff1673ffffffffffffffffffffffffffffffffffffffff16815260200190815260200160002060008201518160000160006101000a81548160ff021916908315150217905550602082015181600101908051906020019061165d92919061181d565b50604082015181600201908051906020019061167a92919061181d565b5060608201518160030160006101000a81548160ff0219169083151502179055509050506116c9600160009054906101000a900473ffffffffffffffffffffffffffffffffffffffff16610f10565b7f378fa22b86a502042a97f23ca73a47206206fbfe67fe4a4b02c18b64ba733e176001848460006040518085151515158152602001806020018060200184151515158152602001838103835286818151815260200191508051906020019080838360005b8381101561174857808201518184015260208101905061172d565b50505050905090810190601f1680156117755780820380516001836020036101000a031916815260200191505b50838103825285818151815260200191508051906020019080838360005b838110156117ae578082015181840152602081019050611793565b50505050905090810190601f1680156117db5780820380516001836020036101000a031916815260200191505b50965050505050505060405180910390a1505050565b604051806080016040528060001515815260200160608152602001606081526020016000151581525090565b828054600181600116156101000203166002900490600052602060002090601f016020900481019282601f1061185e57805160ff191683800117855561188c565b8280016001018555821561188c579182015b8281111561188b578251825591602001919060010190611870565b5b509050611899919061189d565b5090565b6118bf91905b808211156118bb5760008160009055506001016118a3565b5090565b9056fe546865206f7264657220746f2062652063616e63656c65642073686f756c64206e6f7420626520636f6e6669726d6564437573746f6d65722063616e206d616b6520616e206f72646572206f6e6c79207768656e207368652f68652068617320636f6e6669726d6564206f722063616e63656c6c656420746865206578697374696e67206f72646572437573746f6d65722773206e616d652073686f756c646e277420626520656d70747921536869706d656e7420416464726573732073686f756c646e277420626520656d70747921546865206f7264657220746f20626520636f6e6669726d65642073686f756c642062652076616c696421a265627a7a72315820a96098a746d62e5ab8a3f8bc937258a0dd9bc8333f492d7e2478d4856c4a196264736f6c63430005100032",
  "source": "pragma solidity ^0.5.0;\n\ncontract Ethazon {\n    string public shopName;\n    address payable owner;\n    uint public orderPrice;\n    struct EthazonOrder{\n        bool isValidEthazonOrder;\n        string customerName;\n        string shipmentAddress;\n        bool hasConfirmed;\n    }\n    \n   mapping(address => EthazonOrder) public order;\n\n   event orderMade(bool isValidEthazonOrder, string customerName, string shipmentAddress, bool hasConfirmed);\n   event orderConfirmed(bool isValidEthazonOrder, string customerName, string shipmentAddress, bool hasConfirmed);\n   event orderCancelled(bool isValidEthazonOrder, string customerName, string shipmentAddress, bool hasConfirmed);\n   event transfered(address payable to, uint value);\n\n\n\n    constructor() public {\n        shopName = \"shenyue Ethazon.com\";\n        owner = msg.sender;\n        orderPrice = 2000000000000000000;\n    }\n\n     function makeOrder(string memory _customerName, string memory _shipmentAddress) public payable{\n        require(bytes(_customerName).length > 0, \"Customer's name shouldn't be empty!\");\n        require(bytes(_shipmentAddress).length > 0, \"Shipment Address shouldn't be empty!\");\n        require(msg.value >= orderPrice, \"Payment should be enough!\" );\n        EthazonOrder memory _order = order[msg.sender];\n        require(!_order.isValidEthazonOrder && _order.hasConfirmed, \"Customer can make an order only when she/he has confirmed or cancelled the existing order\");\n        order[msg.sender] = EthazonOrder(true, _customerName, _shipmentAddress, false);\n\n        transferMoney(owner);\n\n        emit orderMade(true, _customerName, _shipmentAddress, false);\n        \n    }\n\n    function confirmOrder(string memory _customerName, string memory _shipmentAddress) public{\n        \n        EthazonOrder memory _order = order[msg.sender];\n        require(!_order.isValidEthazonOrder, \"The order to be confirmed should be valid!\");\n        \n\n        _order.hasConfirmed = true;\n        order[msg.sender] = _order;\n\n        emit orderConfirmed(true, _customerName, _shipmentAddress, true);\n        \n    }\n\n    function cancelOrder(string memory _customerName, string memory _shipmentAddress) public payable{\n        \n        EthazonOrder memory _order = order[msg.sender];\n        require(!_order.hasConfirmed, \"The order to be canceled should not be confirmed\");\n\n        _order.isValidEthazonOrder = false;\n        order[msg.sender] = _order;\n        transferMoney(msg.sender);\n\n        emit orderConfirmed(false, _customerName, _shipmentAddress, false);\n        \n    }\n\n    \n\n    function transferMoney(address payable _to) public payable{\n         require(msg.value >= orderPrice, \"Payment should be enough!\" );\n        _to.transfer(orderPrice);\n\n         emit transfered(_to, orderPrice);\n    }\n\n\n}",
  "sourcePath": "C:\\Users\\41615\\OneDrive\\桌面\\571g\\ReviewAndMidtermFrame\\src\\contracts\\Ethazon.sol",
  "compiler": {
    "name": "solc",
    "version": "0.5.16+commit.9c3226ce.Emscripten.clang"
  },
  "schemaVersion": "3.0.23",
  "updatedAt": "2020-02-25T04:06:35.589Z",
  "devdoc": {
    "methods": {}
  },
  "userdoc": {
    "methods": {}
  }
}